{
  "_format": "hh-sol-artifact-1",
  "contractName": "EventDAO",
  "sourceName": "contracts/EventDAO.sol",
  "abi": [
    {
      "anonymous": false,
      "inputs": [
        {
          "indexed": true,
          "internalType": "uint256",
          "name": "id",
          "type": "uint256"
        },
        {
          "indexed": true,
          "internalType": "address",
          "name": "proposer",
          "type": "address"
        },
        {
          "indexed": false,
          "internalType": "string",
          "name": "title",
          "type": "string"
        },
        {
          "indexed": false,
          "internalType": "string",
          "name": "ipfsCID",
          "type": "string"
        },
        {
          "indexed": false,
          "internalType": "uint256",
          "name": "voteEndTime",
          "type": "uint256"
        }
      ],
      "name": "ProposalCreated",
      "type": "event"
    },
    {
      "anonymous": false,
      "inputs": [
        {
          "indexed": true,
          "internalType": "uint256",
          "name": "proposalId",
          "type": "uint256"
        },
        {
          "indexed": false,
          "internalType": "enum EventDAO.ProposalStatus",
          "name": "status",
          "type": "uint8"
        }
      ],
      "name": "ProposalFinalized",
      "type": "event"
    },
    {
      "anonymous": false,
      "inputs": [
        {
          "indexed": true,
          "internalType": "uint256",
          "name": "proposalId",
          "type": "uint256"
        },
        {
          "indexed": true,
          "internalType": "address",
          "name": "voter",
          "type": "address"
        },
        {
          "indexed": false,
          "internalType": "bool",
          "name": "support",
          "type": "bool"
        }
      ],
      "name": "VoteCast",
      "type": "event"
    },
    {
      "inputs": [
        {
          "internalType": "string",
          "name": "_title",
          "type": "string"
        },
        {
          "internalType": "string",
          "name": "_ipfsCID",
          "type": "string"
        },
        {
          "internalType": "uint256",
          "name": "_votingDuration",
          "type": "uint256"
        }
      ],
      "name": "createProposal",
      "outputs": [
        {
          "internalType": "uint256",
          "name": "proposalId",
          "type": "uint256"
        }
      ],
      "stateMutability": "nonpayable",
      "type": "function"
    },
    {
      "inputs": [
        {
          "internalType": "uint256",
          "name": "_proposalId",
          "type": "uint256"
        }
      ],
      "name": "finalizeProposal",
      "outputs": [],
      "stateMutability": "nonpayable",
      "type": "function"
    },
    {
      "inputs": [
        {
          "internalType": "uint256",
          "name": "_proposalId",
          "type": "uint256"
        }
      ],
      "name": "getProposal",
      "outputs": [
        {
          "components": [
            {
              "internalType": "uint256",
              "name": "id",
              "type": "uint256"
            },
            {
              "internalType": "address",
              "name": "proposer",
              "type": "address"
            },
            {
              "internalType": "string",
              "name": "title",
              "type": "string"
            },
            {
              "internalType": "string",
              "name": "ipfsCID",
              "type": "string"
            },
            {
              "internalType": "uint256",
              "name": "yesVotes",
              "type": "uint256"
            },
            {
              "internalType": "uint256",
              "name": "noVotes",
              "type": "uint256"
            },
            {
              "internalType": "uint256",
              "name": "voteEndTime",
              "type": "uint256"
            },
            {
              "internalType": "bool",
              "name": "finalized",
              "type": "bool"
            },
            {
              "internalType": "enum EventDAO.ProposalStatus",
              "name": "status",
              "type": "uint8"
            }
          ],
          "internalType": "struct EventDAO.Proposal",
          "name": "",
          "type": "tuple"
        }
      ],
      "stateMutability": "view",
      "type": "function"
    },
    {
      "inputs": [],
      "name": "getProposalCount",
      "outputs": [
        {
          "internalType": "uint256",
          "name": "",
          "type": "uint256"
        }
      ],
      "stateMutability": "view",
      "type": "function"
    },
    {
      "inputs": [
        {
          "internalType": "uint256",
          "name": "_proposalId",
          "type": "uint256"
        },
        {
          "internalType": "address",
          "name": "_voter",
          "type": "address"
        }
      ],
      "name": "hasVoted",
      "outputs": [
        {
          "internalType": "bool",
          "name": "",
          "type": "bool"
        }
      ],
      "stateMutability": "view",
      "type": "function"
    },
    {
      "inputs": [],
      "name": "proposalCount",
      "outputs": [
        {
          "internalType": "uint256",
          "name": "",
          "type": "uint256"
        }
      ],
      "stateMutability": "view",
      "type": "function"
    },
    {
      "inputs": [
        {
          "internalType": "uint256",
          "name": "_proposalId",
          "type": "uint256"
        },
        {
          "internalType": "bool",
          "name": "_support",
          "type": "bool"
        }
      ],
      "name": "vote",
      "outputs": [],
      "stateMutability": "nonpayable",
      "type": "function"
    }
  ],
  "bytecode": "0x608060405234801561001057600080fd5b50610f37806100206000396000f3fe608060405234801561001057600080fd5b506004361061007d5760003560e01c8063c08cc02d1161005b578063c08cc02d146100e0578063c7f758a8146100e8578063c9d27afe14610108578063da35c6641461011b57600080fd5b80630ce0ebf41461008257806343859632146100a85780635652077c146100cb575b600080fd5b610095610090366004610a4f565b610124565b6040519081526020015b60405180910390f35b6100bb6100b6366004610ac3565b610427565b604051901515815260200161009f565b6100de6100d9366004610aff565b610485565b005b600054610095565b6100fb6100f6366004610aff565b6105da565b60405161009f9190610b96565b6100de610116366004610c48565b6107d8565b61009560005481565b6000846101785760405162461bcd60e51b815260206004820152601f60248201527f4576656e7444414f3a207469746c652063616e6e6f7420626520656d7074790060448201526064015b60405180910390fd5b826101d05760405162461bcd60e51b815260206004820152602260248201527f4576656e7444414f3a2049504653204349442063616e6e6f7420626520656d70604482015261747960f01b606482015260840161016f565b6000821161022e5760405162461bcd60e51b815260206004820152602560248201527f4576656e7444414f3a20766f74696e67206475726174696f6e206d7573742062604482015264065203e20360dc1b606482015260840161016f565b60008054908061023d83610c88565b91905055506000549050604051806101200160405280828152602001336001600160a01b0316815260200187878080601f016020809104026020016040519081016040528093929190818152602001838380828437600092019190915250505090825250604080516020601f88018190048102820181019092528681529181019190879087908190840183828082843760009201829052509385525050506020820181905260408201526060016102f48442610ca1565b8152600060208201819052604090910152600082815260016020818152604092839020845181559084015191810180546001600160a01b0319166001600160a01b03909316929092179091559082015160028201906103539082610d55565b50606082015160038201906103689082610d55565b506080820151600482015560a0820151600582015560c0820151600682015560e082015160078201805491151560ff19831681178255610100808601519361ff001990921661ffff1990921691909117908360028111156103cb576103cb610b5e565b02179055503391508290507fbd04b5479c6dd97d2cc7727f90a20fe21ccf7121f4f9fdc04a755ee528efeb44888888886104058942610ca1565b604051610416959493929190610e3e565b60405180910390a395945050505050565b60008260008111801561043c57506000548111155b6104585760405162461bcd60e51b815260040161016f90610e78565b505060009182526002602090815260408084206001600160a01b0393909316845291905290205460ff1690565b8060008111801561049857506000548111155b6104b45760405162461bcd60e51b815260040161016f90610e78565b6000828152600160205260409020600781015460ff16156104e75760405162461bcd60e51b815260040161016f90610eaf565b806006015442116105485760405162461bcd60e51b815260206004820152602560248201527f4576656e7444414f3a20766f74696e6720706572696f64206e6f742079657420604482015264195b99195960da1b606482015260840161016f565b60078101805460ff1916600117905560058101546004820154111561057d5760078101805461ff00191661010017905561058f565b60078101805461ff0019166102001790555b600781015460405184917f34a42c4ce0a88d16ad098de6406057747139a2a3dd8dd8616ee7bbabcecb768e916105cd91610100900460ff1690610ef3565b60405180910390a2505050565b6105e261099f565b816000811180156105f557506000548111155b6106115760405162461bcd60e51b815260040161016f90610e78565b60008381526001602081815260409283902083516101208101855281548152928101546001600160a01b031691830191909152600281018054929391929184019161065b90610cd0565b80601f016020809104026020016040519081016040528092919081815260200182805461068790610cd0565b80156106d45780601f106106a9576101008083540402835291602001916106d4565b820191906000526020600020905b8154815290600101906020018083116106b757829003601f168201915b505050505081526020016003820180546106ed90610cd0565b80601f016020809104026020016040519081016040528092919081815260200182805461071990610cd0565b80156107665780601f1061073b57610100808354040283529160200191610766565b820191906000526020600020905b81548152906001019060200180831161074957829003601f168201915b5050509183525050600482015460208201526005820154604082015260068201546060820152600782015460ff8082161515608084015260a0909201916101009091041660028111156107bb576107bb610b5e565b60028111156107cc576107cc610b5e565b90525091505b50919050565b816000811180156107eb57506000548111155b6108075760405162461bcd60e51b815260040161016f90610e78565b6000838152600160205260409020600781015460ff161561083a5760405162461bcd60e51b815260040161016f90610eaf565b80600601544211156108985760405162461bcd60e51b815260206004820152602160248201527f4576656e7444414f3a20766f74696e6720706572696f642068617320656e64656044820152601960fa1b606482015260840161016f565b600084815260026020908152604080832033845290915290205460ff16156109025760405162461bcd60e51b815260206004820152601760248201527f4576656e7444414f3a20616c726561647920766f746564000000000000000000604482015260640161016f565b60008481526002602090815260408083203384529091529020805460ff1916600117905582156109485760048101805490600061093e83610c88565b9190505550610960565b60058101805490600061095a83610c88565b91905055505b6040518315158152339085907fe71fcdac32df1877c1700e7bda2a03157e20993363a28fc35ac495cefc76e4d49060200160405180910390a350505050565b6040518061012001604052806000815260200160006001600160a01b03168152602001606081526020016060815260200160008152602001600081526020016000815260200160001515815260200160006002811115610a0157610a01610b5e565b905290565b60008083601f840112610a1857600080fd5b50813567ffffffffffffffff811115610a3057600080fd5b602083019150836020828501011115610a4857600080fd5b9250929050565b600080600080600060608688031215610a6757600080fd5b853567ffffffffffffffff80821115610a7f57600080fd5b610a8b89838a01610a06565b90975095506020880135915080821115610aa457600080fd5b50610ab188828901610a06565b96999598509660400135949350505050565b60008060408385031215610ad657600080fd5b8235915060208301356001600160a01b0381168114610af457600080fd5b809150509250929050565b600060208284031215610b1157600080fd5b5035919050565b6000815180845260005b81811015610b3e57602081850181015186830182015201610b22565b506000602082860101526020601f19601f83011685010191505092915050565b634e487b7160e01b600052602160045260246000fd5b60038110610b9257634e487b7160e01b600052602160045260246000fd5b9052565b602081528151602082015260006020830151610bbd60408401826001600160a01b03169052565b506040830151610120806060850152610bda610140850183610b18565b91506060850151601f19858403016080860152610bf78382610b18565b925050608085015160a085015260a085015160c085015260c085015160e085015260e0850151610100610c2d8187018315159052565b8601519050610c3e85830182610b74565b5090949350505050565b60008060408385031215610c5b57600080fd5b8235915060208301358015158114610af457600080fd5b634e487b7160e01b600052601160045260246000fd5b600060018201610c9a57610c9a610c72565b5060010190565b80820180821115610cb457610cb4610c72565b92915050565b634e487b7160e01b600052604160045260246000fd5b600181811c90821680610ce457607f821691505b6020821081036107d257634e487b7160e01b600052602260045260246000fd5b601f821115610d50576000816000526020600020601f850160051c81016020861015610d2d5750805b601f850160051c820191505b81811015610d4c57828155600101610d39565b5050505b505050565b815167ffffffffffffffff811115610d6f57610d6f610cba565b610d8381610d7d8454610cd0565b84610d04565b602080601f831160018114610db85760008415610da05750858301515b600019600386901b1c1916600185901b178555610d4c565b600085815260208120601f198616915b82811015610de757888601518255948401946001909101908401610dc8565b5085821015610e055787850151600019600388901b60f8161c191681555b5050505050600190811b01905550565b81835281816020850137506000828201602090810191909152601f909101601f19169091010190565b606081526000610e52606083018789610e15565b8281036020840152610e65818688610e15565b9150508260408301529695505050505050565b6020808252601d908201527f4576656e7444414f3a20696e76616c69642070726f706f73616c204944000000604082015260600190565b60208082526024908201527f4576656e7444414f3a2070726f706f73616c20616c72656164792066696e616c6040820152631a5e995960e21b606082015260800190565b60208101610cb48284610b7456fea2646970667358221220a1473fa8764d569a60a103caa988844a4825b4efb2b0f31430b560e93fa24a1564736f6c63430008180033",
  "linkReferences": {},
  "deployedLinkReferences": {}
}