{
  "_format": "hh-sol-artifact-1",
  "contractName": "CollegeDAO",
  "sourceName": "contracts/CollegeDAO.sol",
  "abi": [
    {
      "inputs": [
        {
          "internalType": "address",
          "name": "_voteToken",
          "type": "address"
        }
      ],
      "stateMutability": "nonpayable",
      "type": "constructor"
    },
    {
      "inputs": [
        {
          "internalType": "address",
          "name": "owner",
          "type": "address"
        }
      ],
      "name": "OwnableInvalidOwner",
      "type": "error"
    },
    {
      "inputs": [
        {
          "internalType": "address",
          "name": "account",
          "type": "address"
        }
      ],
      "name": "OwnableUnauthorizedAccount",
      "type": "error"
    },
    {
      "anonymous": false,
      "inputs": [
        {
          "indexed": true,
          "internalType": "address",
          "name": "previousOwner",
          "type": "address"
        },
        {
          "indexed": true,
          "internalType": "address",
          "name": "newOwner",
          "type": "address"
        }
      ],
      "name": "OwnershipTransferred",
      "type": "event"
    },
    {
      "anonymous": false,
      "inputs": [
        {
          "indexed": false,
          "internalType": "uint256",
          "name": "id",
          "type": "uint256"
        },
        {
          "indexed": false,
          "internalType": "string",
          "name": "ipfsHash",
          "type": "string"
        },
        {
          "indexed": false,
          "internalType": "uint256",
          "name": "amount",
          "type": "uint256"
        },
        {
          "indexed": false,
          "internalType": "address",
          "name": "recipient",
          "type": "address"
        },
        {
          "indexed": false,
          "internalType": "uint256",
          "name": "deadline",
          "type": "uint256"
        },
        {
          "indexed": false,
          "internalType": "enum CollegeDAO.VotingType",
          "name": "votingType",
          "type": "uint8"
        }
      ],
      "name": "ProposalCreated",
      "type": "event"
    },
    {
      "anonymous": false,
      "inputs": [
        {
          "indexed": false,
          "internalType": "uint256",
          "name": "id",
          "type": "uint256"
        },
        {
          "indexed": false,
          "internalType": "bool",
          "name": "success",
          "type": "bool"
        }
      ],
      "name": "ProposalExecuted",
      "type": "event"
    },
    {
      "anonymous": false,
      "inputs": [
        {
          "indexed": false,
          "internalType": "uint256",
          "name": "id",
          "type": "uint256"
        },
        {
          "indexed": false,
          "internalType": "address",
          "name": "voter",
          "type": "address"
        },
        {
          "indexed": false,
          "internalType": "bool",
          "name": "support",
          "type": "bool"
        },
        {
          "indexed": false,
          "internalType": "uint256",
          "name": "weight",
          "type": "uint256"
        }
      ],
      "name": "Voted",
      "type": "event"
    },
    {
      "inputs": [],
      "name": "config",
      "outputs": [
        {
          "internalType": "uint256",
          "name": "minTokensToPropose",
          "type": "uint256"
        },
        {
          "internalType": "uint256",
          "name": "proposalFee",
          "type": "uint256"
        },
        {
          "internalType": "bool",
          "name": "feeRefundable",
          "type": "bool"
        }
      ],
      "stateMutability": "view",
      "type": "function"
    },
    {
      "inputs": [
        {
          "internalType": "string",
          "name": "_ipfsHash",
          "type": "string"
        },
        {
          "internalType": "uint256",
          "name": "_amount",
          "type": "uint256"
        },
        {
          "internalType": "address payable",
          "name": "_recipient",
          "type": "address"
        },
        {
          "internalType": "uint256",
          "name": "_duration",
          "type": "uint256"
        },
        {
          "internalType": "enum CollegeDAO.VotingType",
          "name": "_votingType",
          "type": "uint8"
        }
      ],
      "name": "createProposal",
      "outputs": [],
      "stateMutability": "payable",
      "type": "function"
    },
    {
      "inputs": [
        {
          "internalType": "uint256",
          "name": "id",
          "type": "uint256"
        }
      ],
      "name": "execute",
      "outputs": [],
      "stateMutability": "nonpayable",
      "type": "function"
    },
    {
      "inputs": [],
      "name": "getProposalsCount",
      "outputs": [
        {
          "internalType": "uint256",
          "name": "",
          "type": "uint256"
        }
      ],
      "stateMutability": "view",
      "type": "function"
    },
    {
      "inputs": [],
      "name": "owner",
      "outputs": [
        {
          "internalType": "address",
          "name": "",
          "type": "address"
        }
      ],
      "stateMutability": "view",
      "type": "function"
    },
    {
      "inputs": [
        {
          "internalType": "uint256",
          "name": "",
          "type": "uint256"
        }
      ],
      "name": "proposals",
      "outputs": [
        {
          "internalType": "string",
          "name": "ipfsHash",
          "type": "string"
        },
        {
          "internalType": "uint256",
          "name": "amount",
          "type": "uint256"
        },
        {
          "internalType": "address payable",
          "name": "recipient",
          "type": "address"
        },
        {
          "internalType": "uint256",
          "name": "yesVotes",
          "type": "uint256"
        },
        {
          "internalType": "uint256",
          "name": "noVotes",
          "type": "uint256"
        },
        {
          "internalType": "uint256",
          "name": "deadline",
          "type": "uint256"
        },
        {
          "internalType": "bool",
          "name": "executed",
          "type": "bool"
        },
        {
          "internalType": "address",
          "name": "proposer",
          "type": "address"
        },
        {
          "internalType": "enum CollegeDAO.VotingType",
          "name": "votingType",
          "type": "uint8"
        },
        {
          "internalType": "uint256",
          "name": "feePaid",
          "type": "uint256"
        }
      ],
      "stateMutability": "view",
      "type": "function"
    },
    {
      "inputs": [],
      "name": "renounceOwnership",
      "outputs": [],
      "stateMutability": "nonpayable",
      "type": "function"
    },
    {
      "inputs": [
        {
          "internalType": "uint256",
          "name": "_minTokens",
          "type": "uint256"
        },
        {
          "internalType": "uint256",
          "name": "_fee",
          "type": "uint256"
        },
        {
          "internalType": "bool",
          "name": "_refundable",
          "type": "bool"
        }
      ],
      "name": "setConfig",
      "outputs": [],
      "stateMutability": "nonpayable",
      "type": "function"
    },
    {
      "inputs": [
        {
          "internalType": "uint256",
          "name": "",
          "type": "uint256"
        },
        {
          "internalType": "address",
          "name": "",
          "type": "address"
        }
      ],
      "name": "tokensUsed",
      "outputs": [
        {
          "internalType": "uint256",
          "name": "",
          "type": "uint256"
        }
      ],
      "stateMutability": "view",
      "type": "function"
    },
    {
      "inputs": [
        {
          "internalType": "address",
          "name": "newOwner",
          "type": "address"
        }
      ],
      "name": "transferOwnership",
      "outputs": [],
      "stateMutability": "nonpayable",
      "type": "function"
    },
    {
      "inputs": [
        {
          "internalType": "uint256",
          "name": "id",
          "type": "uint256"
        },
        {
          "internalType": "bool",
          "name": "support",
          "type": "bool"
        },
        {
          "internalType": "uint256",
          "name": "tokenAmount",
          "type": "uint256"
        }
      ],
      "name": "vote",
      "outputs": [],
      "stateMutability": "nonpayable",
      "type": "function"
    },
    {
      "inputs": [],
      "name": "voteToken",
      "outputs": [
        {
          "internalType": "contract IERC20",
          "name": "",
          "type": "address"
        }
      ],
      "stateMutability": "view",
      "type": "function"
    },
    {
      "inputs": [
        {
          "internalType": "uint256",
          "name": "",
          "type": "uint256"
        },
        {
          "internalType": "address",
          "name": "",
          "type": "address"
        }
      ],
      "name": "voted",
      "outputs": [
        {
          "internalType": "bool",
          "name": "",
          "type": "bool"
        }
      ],
      "stateMutability": "view",
      "type": "function"
    },
    {
      "stateMutability": "payable",
      "type": "receive"
    }
  ],
  "bytecode": "0x60806040523480156200001157600080fd5b506040516200274d3803806200274d83398181016040528101906200003791906200029c565b33600073ffffffffffffffffffffffffffffffffffffffff168173ffffffffffffffffffffffffffffffffffffffff1603620000ad5760006040517f1e4fbdf7000000000000000000000000000000000000000000000000000000008152600401620000a49190620002df565b60405180910390fd5b620000be816200016e60201b60201c565b5080600160006101000a81548173ffffffffffffffffffffffffffffffffffffffff021916908373ffffffffffffffffffffffffffffffffffffffff160217905550604051806060016040528068056bc75e2d631000008152602001662386f26fc100008152602001600115158152506005600082015181600001556020820151816001015560408201518160020160006101000a81548160ff02191690831515021790555090505050620002fc565b60008060009054906101000a900473ffffffffffffffffffffffffffffffffffffffff169050816000806101000a81548173ffffffffffffffffffffffffffffffffffffffff021916908373ffffffffffffffffffffffffffffffffffffffff1602179055508173ffffffffffffffffffffffffffffffffffffffff168173ffffffffffffffffffffffffffffffffffffffff167f8be0079c531659141344cd1fd0a4f28419497f9722a3daafe3b4186f6b6457e060405160405180910390a35050565b600080fd5b600073ffffffffffffffffffffffffffffffffffffffff82169050919050565b6000620002648262000237565b9050919050565b620002768162000257565b81146200028257600080fd5b50565b60008151905062000296816200026b565b92915050565b600060208284031215620002b557620002b462000232565b5b6000620002c58482850162000285565b91505092915050565b620002d98162000257565b82525050565b6000602082019050620002f66000830184620002ce565b92915050565b612441806200030c6000396000f3fe6080604052600436106100c65760003560e01c806398e527d31161007f578063d8d7abce11610059578063d8d7abce1461025f578063dc8199d914610288578063f2fde38b146102c5578063fe0d94c1146102ee576100cd565b806398e527d3146101ef578063b35eca271461021a578063d46a5d7e14610236576100cd565b8063013cf08b146100d2578063160d66ae146101185780635277b4ae14610143578063715018a61461018057806379502c55146101975780638da5cb5b146101c4576100cd565b366100cd57005b600080fd5b3480156100de57600080fd5b506100f960048036038101906100f491906112f4565b610317565b60405161010f9a999897969594939291906114b4565b60405180910390f35b34801561012457600080fd5b5061012d61045d565b60405161013a91906115b6565b60405180910390f35b34801561014f57600080fd5b5061016a600480360381019061016591906115fd565b610483565b604051610177919061163d565b60405180910390f35b34801561018c57600080fd5b506101956104b2565b005b3480156101a357600080fd5b506101ac6104c6565b6040516101bb93929190611658565b60405180910390f35b3480156101d057600080fd5b506101d96104eb565b6040516101e6919061168f565b60405180910390f35b3480156101fb57600080fd5b50610204610514565b60405161021191906116aa565b60405180910390f35b610234600480360381019061022f919061184b565b610521565b005b34801561024257600080fd5b5061025d6004803603810190610258919061190e565b6108a7565b005b34801561026b57600080fd5b5061028660048036038101906102819190611961565b610cfe565b005b34801561029457600080fd5b506102af60048036038101906102aa91906115fd565b610d61565b6040516102bc91906116aa565b60405180910390f35b3480156102d157600080fd5b506102ec60048036038101906102e791906119b4565b610d86565b005b3480156102fa57600080fd5b50610315600480360381019061031091906112f4565b610e0c565b005b6002818154811061032757600080fd5b906000526020600020906008020160009150905080600001805461034a90611a10565b80601f016020809104026020016040519081016040528092919081815260200182805461037690611a10565b80156103c35780601f10610398576101008083540402835291602001916103c3565b820191906000526020600020905b8154815290600101906020018083116103a657829003601f168201915b5050505050908060010154908060020160009054906101000a900473ffffffffffffffffffffffffffffffffffffffff16908060030154908060040154908060050154908060060160009054906101000a900460ff16908060060160019054906101000a900473ffffffffffffffffffffffffffffffffffffffff16908060060160159054906101000a900460ff1690806007015490508a565b600160009054906101000a900473ffffffffffffffffffffffffffffffffffffffff1681565b60036020528160005260406000206020528060005260406000206000915091509054906101000a900460ff1681565b6104ba6110fa565b6104c46000611181565b565b60058060000154908060010154908060020160009054906101000a900460ff16905083565b60008060009054906101000a900473ffffffffffffffffffffffffffffffffffffffff16905090565b6000600280549050905090565b600560000154600160009054906101000a900473ffffffffffffffffffffffffffffffffffffffff1673ffffffffffffffffffffffffffffffffffffffff166370a08231336040518263ffffffff1660e01b8152600401610582919061168f565b602060405180830381865afa15801561059f573d6000803e3d6000fd5b505050506040513d601f19601f820116820180604052508101906105c39190611a56565b1015610604576040517f08c379a00000000000000000000000000000000000000000000000000000000081526004016105fb90611acf565b60405180910390fd5b6000600560010154111561065a576005600101543414610659576040517f08c379a000000000000000000000000000000000000000000000000000000000815260040161065090611b3b565b60405180910390fd5b5b60026040518061014001604052808781526020018681526020018573ffffffffffffffffffffffffffffffffffffffff168152602001600081526020016000815260200184426106aa9190611b8a565b81526020016000151581526020013373ffffffffffffffffffffffffffffffffffffffff1681526020018360018111156106e7576106e661143d565b5b8152602001348152509080600181540180825580915050600190039060005260206000209060080201600090919091909150600082015181600001908161072e9190611d60565b506020820151816001015560408201518160020160006101000a81548173ffffffffffffffffffffffffffffffffffffffff021916908373ffffffffffffffffffffffffffffffffffffffff160217905550606082015181600301556080820151816004015560a0820151816005015560c08201518160060160006101000a81548160ff02191690831515021790555060e08201518160060160016101000a81548173ffffffffffffffffffffffffffffffffffffffff021916908373ffffffffffffffffffffffffffffffffffffffff1602179055506101008201518160060160156101000a81548160ff021916908360018111156108315761083061143d565b5b0217905550610120820151816007015550507f899c1047051b782ae94fc4601e6d5ae6feca7bead74aca10cd20b100eb0ddcf860016002805490506108769190611e32565b86868686426108859190611b8a565b8660405161089896959493929190611e87565b60405180910390a15050505050565b60028054905083106108ee576040517f08c379a00000000000000000000000000000000000000000000000000000000081526004016108e590611f3b565b60405180910390fd5b60006002848154811061090457610903611f5b565b5b90600052602060002090600802019050806005015442111561095b576040517f08c379a000000000000000000000000000000000000000000000000000000000815260040161095290611fd6565b60405180910390fd5b6003600085815260200190815260200160002060003373ffffffffffffffffffffffffffffffffffffffff1673ffffffffffffffffffffffffffffffffffffffff16815260200190815260200160002060009054906101000a900460ff16156109f9576040517f08c379a00000000000000000000000000000000000000000000000000000000081526004016109f090612042565b60405180910390fd5b6000806001811115610a0e57610a0d61143d565b5b8260060160159054906101000a900460ff166001811115610a3257610a3161143d565b5b03610b1d57600160009054906101000a900473ffffffffffffffffffffffffffffffffffffffff1673ffffffffffffffffffffffffffffffffffffffff166370a08231336040518263ffffffff1660e01b8152600401610a92919061168f565b602060405180830381865afa158015610aaf573d6000803e3d6000fd5b505050506040513d601f19601f82011682018060405250810190610ad39190611a56565b905060008111610b18576040517f08c379a0000000000000000000000000000000000000000000000000000000008152600401610b0f906120ae565b60405180910390fd5b610c0f565b60008311610b60576040517f08c379a0000000000000000000000000000000000000000000000000000000008152600401610b579061211a565b60405180910390fd5b600160009054906101000a900473ffffffffffffffffffffffffffffffffffffffff1673ffffffffffffffffffffffffffffffffffffffff166323b872dd3330866040518463ffffffff1660e01b8152600401610bbf9392919061213a565b6020604051808303816000875af1158015610bde573d6000803e3d6000fd5b505050506040513d601f19601f82011682018060405250810190610c029190612186565b50610c0c83611245565b90505b60016003600087815260200190815260200160002060003373ffffffffffffffffffffffffffffffffffffffff1673ffffffffffffffffffffffffffffffffffffffff16815260200190815260200160002060006101000a81548160ff0219169083151502179055508315610c9e5780826003016000828254610c929190611b8a565b92505081905550610cba565b80826004016000828254610cb29190611b8a565b925050819055505b7f7c2de587c00d75474a0c6c6fa96fd3b45dc974cd4e8a75f712bb84c950dce1b585338684604051610cef94939291906121b3565b60405180910390a15050505050565b610d066110fa565b60405180606001604052808481526020018381526020018215158152506005600082015181600001556020820151816001015560408201518160020160006101000a81548160ff021916908315150217905550905050505050565b6004602052816000526040600020602052806000526040600020600091509150505481565b610d8e6110fa565b600073ffffffffffffffffffffffffffffffffffffffff168173ffffffffffffffffffffffffffffffffffffffff1603610e005760006040517f1e4fbdf7000000000000000000000000000000000000000000000000000000008152600401610df7919061168f565b60405180910390fd5b610e0981611181565b50565b600060028281548110610e2257610e21611f5b565b5b9060005260206000209060080201905080600501544211610e78576040517f08c379a0000000000000000000000000000000000000000000000000000000008152600401610e6f90612244565b60405180910390fd5b8060060160009054906101000a900460ff1615610eca576040517f08c379a0000000000000000000000000000000000000000000000000000000008152600401610ec1906122b0565b60405180910390fd5b60018160060160006101000a81548160ff02191690831515021790555080600401548160030154111561100b5760008160020160009054906101000a900473ffffffffffffffffffffffffffffffffffffffff1673ffffffffffffffffffffffffffffffffffffffff168260010154604051610f4590612301565b60006040518083038185875af1925050503d8060008114610f82576040519150601f19603f3d011682016040523d82523d6000602084013e610f87565b606091505b5050905080610fcb576040517f08c379a0000000000000000000000000000000000000000000000000000000008152600401610fc290612362565b60405180910390fd5b7f948f4a9cd986f1118c3fbd459f7a22b23c0693e1ca3ef06a6a8be5aa7d39cc03836001604051610ffd929190612382565b60405180910390a150611046565b7f948f4a9cd986f1118c3fbd459f7a22b23c0693e1ca3ef06a6a8be5aa7d39cc0382600060405161103d929190612382565b60405180910390a15b600560020160009054906101000a900460ff168015611069575060008160070154115b801561107c575080600401548160030154115b156110f5578060060160019054906101000a900473ffffffffffffffffffffffffffffffffffffffff1673ffffffffffffffffffffffffffffffffffffffff166108fc82600701549081150290604051600060405180830381858888f193505050501580156110ef573d6000803e3d6000fd5b506110f6565b5b5050565b6111026112a2565b73ffffffffffffffffffffffffffffffffffffffff166111206104eb565b73ffffffffffffffffffffffffffffffffffffffff161461117f576111436112a2565b6040517f118cdaa7000000000000000000000000000000000000000000000000000000008152600401611176919061168f565b60405180910390fd5b565b60008060009054906101000a900473ffffffffffffffffffffffffffffffffffffffff169050816000806101000a81548173ffffffffffffffffffffffffffffffffffffffff021916908373ffffffffffffffffffffffffffffffffffffffff1602179055508173ffffffffffffffffffffffffffffffffffffffff168173ffffffffffffffffffffffffffffffffffffffff167f8be0079c531659141344cd1fd0a4f28419497f9722a3daafe3b4186f6b6457e060405160405180910390a35050565b60008060026001846112579190611b8a565b61126191906123da565b90508291505b8181101561129c57809150600281828561128191906123da565b61128b9190611b8a565b61129591906123da565b9050611267565b50919050565b600033905090565b6000604051905090565b600080fd5b600080fd5b6000819050919050565b6112d1816112be565b81146112dc57600080fd5b50565b6000813590506112ee816112c8565b92915050565b60006020828403121561130a576113096112b4565b5b6000611318848285016112df565b91505092915050565b600081519050919050565b600082825260208201905092915050565b60005b8381101561135b578082015181840152602081019050611340565b60008484015250505050565b6000601f19601f8301169050919050565b600061138382611321565b61138d818561132c565b935061139d81856020860161133d565b6113a681611367565b840191505092915050565b6113ba816112be565b82525050565b600073ffffffffffffffffffffffffffffffffffffffff82169050919050565b60006113eb826113c0565b9050919050565b6113fb816113e0565b82525050565b60008115159050919050565b61141681611401565b82525050565b6000611427826113c0565b9050919050565b6114378161141c565b82525050565b7f4e487b7100000000000000000000000000000000000000000000000000000000600052602160045260246000fd5b6002811061147d5761147c61143d565b5b50565b600081905061148e8261146c565b919050565b600061149e82611480565b9050919050565b6114ae81611493565b82525050565b60006101408201905081810360008301526114cf818d611378565b90506114de602083018c6113b1565b6114eb604083018b6113f2565b6114f8606083018a6113b1565b61150560808301896113b1565b61151260a08301886113b1565b61151f60c083018761140d565b61152c60e083018661142e565b61153a6101008301856114a5565b6115486101208301846113b1565b9b9a5050505050505050505050565b6000819050919050565b600061157c611577611572846113c0565b611557565b6113c0565b9050919050565b600061158e82611561565b9050919050565b60006115a082611583565b9050919050565b6115b081611595565b82525050565b60006020820190506115cb60008301846115a7565b92915050565b6115da8161141c565b81146115e557600080fd5b50565b6000813590506115f7816115d1565b92915050565b60008060408385031215611614576116136112b4565b5b6000611622858286016112df565b9250506020611633858286016115e8565b9150509250929050565b6000602082019050611652600083018461140d565b92915050565b600060608201905061166d60008301866113b1565b61167a60208301856113b1565b611687604083018461140d565b949350505050565b60006020820190506116a4600083018461142e565b92915050565b60006020820190506116bf60008301846113b1565b92915050565b600080fd5b600080fd5b7f4e487b7100000000000000000000000000000000000000000000000000000000600052604160045260246000fd5b61170782611367565b810181811067ffffffffffffffff82111715611726576117256116cf565b5b80604052505050565b60006117396112aa565b905061174582826116fe565b919050565b600067ffffffffffffffff821115611765576117646116cf565b5b61176e82611367565b9050602081019050919050565b82818337600083830152505050565b600061179d6117988461174a565b61172f565b9050828152602081018484840111156117b9576117b86116ca565b5b6117c484828561177b565b509392505050565b600082601f8301126117e1576117e06116c5565b5b81356117f184826020860161178a565b91505092915050565b611803816113e0565b811461180e57600080fd5b50565b600081359050611820816117fa565b92915050565b6002811061183357600080fd5b50565b60008135905061184581611826565b92915050565b600080600080600060a08688031215611867576118666112b4565b5b600086013567ffffffffffffffff811115611885576118846112b9565b5b611891888289016117cc565b95505060206118a2888289016112df565b94505060406118b388828901611811565b93505060606118c4888289016112df565b92505060806118d588828901611836565b9150509295509295909350565b6118eb81611401565b81146118f657600080fd5b50565b600081359050611908816118e2565b92915050565b600080600060608486031215611927576119266112b4565b5b6000611935868287016112df565b9350506020611946868287016118f9565b9250506040611957868287016112df565b9150509250925092565b60008060006060848603121561197a576119796112b4565b5b6000611988868287016112df565b9350506020611999868287016112df565b92505060406119aa868287016118f9565b9150509250925092565b6000602082840312156119ca576119c96112b4565b5b60006119d8848285016115e8565b91505092915050565b7f4e487b7100000000000000000000000000000000000000000000000000000000600052602260045260246000fd5b60006002820490506001821680611a2857607f821691505b602082108103611a3b57611a3a6119e1565b5b50919050565b600081519050611a50816112c8565b92915050565b600060208284031215611a6c57611a6b6112b4565b5b6000611a7a84828501611a41565b91505092915050565b7f496e73756666696369656e7420676f7665726e616e636520746f6b656e730000600082015250565b6000611ab9601e8361132c565b9150611ac482611a83565b602082019050919050565b60006020820190508181036000830152611ae881611aac565b9050919050565b7f496e636f72726563742070726f706f73616c2066656500000000000000000000600082015250565b6000611b2560168361132c565b9150611b3082611aef565b602082019050919050565b60006020820190508181036000830152611b5481611b18565b9050919050565b7f4e487b7100000000000000000000000000000000000000000000000000000000600052601160045260246000fd5b6000611b95826112be565b9150611ba0836112be565b9250828201905080821115611bb857611bb7611b5b565b5b92915050565b60008190508160005260206000209050919050565b60006020601f8301049050919050565b600082821b905092915050565b600060088302611c207fffffffffffffffffffffffffffffffffffffffffffffffffffffffffffffffff82611be3565b611c2a8683611be3565b95508019841693508086168417925050509392505050565b6000611c5d611c58611c53846112be565b611557565b6112be565b9050919050565b6000819050919050565b611c7783611c42565b611c8b611c8382611c64565b848454611bf0565b825550505050565b600090565b611ca0611c93565b611cab818484611c6e565b505050565b5b81811015611ccf57611cc4600082611c98565b600181019050611cb1565b5050565b601f821115611d1457611ce581611bbe565b611cee84611bd3565b81016020851015611cfd578190505b611d11611d0985611bd3565b830182611cb0565b50505b505050565b600082821c905092915050565b6000611d3760001984600802611d19565b1980831691505092915050565b6000611d508383611d26565b9150826002028217905092915050565b611d6982611321565b67ffffffffffffffff811115611d8257611d816116cf565b5b611d8c8254611a10565b611d97828285611cd3565b600060209050601f831160018114611dca5760008415611db8578287015190505b611dc28582611d44565b865550611e2a565b601f198416611dd886611bbe565b60005b82811015611e0057848901518255600182019150602085019450602081019050611ddb565b86831015611e1d5784890151611e19601f891682611d26565b8355505b6001600288020188555050505b505050505050565b6000611e3d826112be565b9150611e48836112be565b9250828203905081811115611e6057611e5f611b5b565b5b92915050565b6000611e7182611583565b9050919050565b611e8181611e66565b82525050565b600060c082019050611e9c60008301896113b1565b8181036020830152611eae8188611378565b9050611ebd60408301876113b1565b611eca6060830186611e78565b611ed760808301856113b1565b611ee460a08301846114a5565b979650505050505050565b7f496e76616c69642070726f706f73616c00000000000000000000000000000000600082015250565b6000611f2560108361132c565b9150611f3082611eef565b602082019050919050565b60006020820190508181036000830152611f5481611f18565b9050919050565b7f4e487b7100000000000000000000000000000000000000000000000000000000600052603260045260246000fd5b7f566f74696e6720636c6f73656400000000000000000000000000000000000000600082015250565b6000611fc0600d8361132c565b9150611fcb82611f8a565b602082019050919050565b60006020820190508181036000830152611fef81611fb3565b9050919050565b7f416c726561647920766f74656400000000000000000000000000000000000000600082015250565b600061202c600d8361132c565b915061203782611ff6565b602082019050919050565b6000602082019050818103600083015261205b8161201f565b9050919050565b7f4e6f20766f74696e672072696768747300000000000000000000000000000000600082015250565b600061209860108361132c565b91506120a382612062565b602082019050919050565b600060208201905081810360008301526120c78161208b565b9050919050565b7f4d75737420636f6d6d697420746f6b656e730000000000000000000000000000600082015250565b600061210460128361132c565b915061210f826120ce565b602082019050919050565b60006020820190508181036000830152612133816120f7565b9050919050565b600060608201905061214f600083018661142e565b61215c602083018561142e565b61216960408301846113b1565b949350505050565b600081519050612180816118e2565b92915050565b60006020828403121561219c5761219b6112b4565b5b60006121aa84828501612171565b91505092915050565b60006080820190506121c860008301876113b1565b6121d5602083018661142e565b6121e2604083018561140d565b6121ef60608301846113b1565b95945050505050565b7f566f74696e672061637469766500000000000000000000000000000000000000600082015250565b600061222e600d8361132c565b9150612239826121f8565b602082019050919050565b6000602082019050818103600083015261225d81612221565b9050919050565b7f4578656375746564000000000000000000000000000000000000000000000000600082015250565b600061229a60088361132c565b91506122a582612264565b602082019050919050565b600060208201905081810360008301526122c98161228d565b9050919050565b600081905092915050565b50565b60006122eb6000836122d0565b91506122f6826122db565b600082019050919050565b600061230c826122de565b9150819050919050565b7f5472616e73666572206661696c65640000000000000000000000000000000000600082015250565b600061234c600f8361132c565b915061235782612316565b602082019050919050565b6000602082019050818103600083015261237b8161233f565b9050919050565b600060408201905061239760008301856113b1565b6123a4602083018461140d565b9392505050565b7f4e487b7100000000000000000000000000000000000000000000000000000000600052601260045260246000fd5b60006123e5826112be565b91506123f0836112be565b925082612400576123ff6123ab565b5b82820490509291505056fea2646970667358221220928cd9320046bbf1d41ce24dfc8642cb92ed25b35591f4cbde67a72b00fb4d0064736f6c63430008140033",
  "linkReferences": {},
  "deployedLinkReferences": {}
}